:100000000C9434000C9449000C9449000C94490061
:100010000C9449000C9449000C9449000C9449003C
:100020000C9449000C9449000C9449000C9449002C
:100030000C9449000C9449000C9449000C9449001C
:100040000C9449000C9449000C9449000C9449000C
:100050000C9449000C9449000C9449000C944900FC
:100060000C9449000C94490011241FBECFEFD8E036
:10007000DEBFCDBF11E0A0E0B1E0E6EAF1E002C0F2
:1000800005900D92A033B107D9F70E9474000C942B
:10009000D1000C9400001092C50087E68093C40044
:1000A00088E08093C10086E08093C200089590911B
:1000B000C00095FFFCCF8093C6000895CF93DF93D7
:1000C000EC0103C021960E94570088818111FACF6C
:1000D000DF91CF9108958AB183708AB98BB18C6F0B
:1000E0008BB90E944B0008950E946B004A990DC085
:1000F00080E091E00E945E002FEF83EC99E02150B8
:1001000080409040E1F700C000004B990DC089E0AD
:1001100091E00E945E002FEF83EC99E02150804037
:100120009040E1F700C000004C990DC081E191E0E2
:100130000E945E002FEF83EC99E0215080409040B8
:10014000E1F700C000004D990DC08DE191E00E94E3
:100150005E002FEF83EC99E0215080409040E1F762
:1001600000C000004E990DC087E291E00E945E0041
:100170002FEF83EC99E0215080409040E1F700C0E0
:1001800000004F99B3CF8BE291E00E945E002FEF09
:1001900083EC99E0215080409040E1F700C00000DE
:0601A000A5CFF894FFCF8B
:1001A6004172726962610D0A004162616A6F0D0AED
:1001B60000497A717569657264610D0A0044657259
:1001C600656368610D0A00410D0A00420D0A0000D0
:00000001FF
